{
  "contractName": "SocialNetwork",
  "abi": [
    {
      "constant": true,
      "inputs": [
        {
          "name": "",
          "type": "address"
        }
      ],
      "name": "members",
      "outputs": [
        {
          "name": "",
          "type": "uint256"
        }
      ],
      "payable": false,
      "stateMutability": "view",
      "type": "function",
      "signature": "0x08ae4b0c"
    },
    {
      "constant": true,
      "inputs": [
        {
          "name": "",
          "type": "uint256"
        }
      ],
      "name": "posts",
      "outputs": [
        {
          "name": "id",
          "type": "uint256"
        },
        {
          "name": "content",
          "type": "string"
        },
        {
          "name": "tipAmount",
          "type": "uint256"
        },
        {
          "name": "vote",
          "type": "uint256"
        },
        {
          "name": "author",
          "type": "address"
        }
      ],
      "payable": false,
      "stateMutability": "view",
      "type": "function",
      "signature": "0x0b1e7f83"
    },
    {
      "constant": true,
      "inputs": [],
      "name": "postCount",
      "outputs": [
        {
          "name": "",
          "type": "uint256"
        }
      ],
      "payable": false,
      "stateMutability": "view",
      "type": "function",
      "signature": "0x17906c2e"
    },
    {
      "constant": true,
      "inputs": [
        {
          "name": "",
          "type": "address"
        },
        {
          "name": "",
          "type": "uint256"
        }
      ],
      "name": "addressVotes",
      "outputs": [
        {
          "name": "",
          "type": "bool"
        }
      ],
      "payable": false,
      "stateMutability": "view",
      "type": "function",
      "signature": "0x33d516c7"
    },
    {
      "constant": true,
      "inputs": [],
      "name": "numMember",
      "outputs": [
        {
          "name": "",
          "type": "uint256"
        }
      ],
      "payable": false,
      "stateMutability": "view",
      "type": "function",
      "signature": "0x3bbe7987"
    },
    {
      "constant": true,
      "inputs": [
        {
          "name": "",
          "type": "uint256"
        },
        {
          "name": "",
          "type": "uint256"
        }
      ],
      "name": "voterOfPost",
      "outputs": [
        {
          "name": "",
          "type": "address"
        }
      ],
      "payable": false,
      "stateMutability": "view",
      "type": "function",
      "signature": "0x73217dce"
    },
    {
      "constant": true,
      "inputs": [
        {
          "name": "",
          "type": "uint256"
        }
      ],
      "name": "accounts",
      "outputs": [
        {
          "name": "",
          "type": "address"
        }
      ],
      "payable": false,
      "stateMutability": "view",
      "type": "function",
      "signature": "0xf2a40db8"
    },
    {
      "anonymous": false,
      "inputs": [
        {
          "indexed": false,
          "name": "id",
          "type": "uint256"
        },
        {
          "indexed": false,
          "name": "content",
          "type": "string"
        },
        {
          "indexed": false,
          "name": "tipAmount",
          "type": "uint256"
        },
        {
          "indexed": false,
          "name": "vote",
          "type": "uint256"
        },
        {
          "indexed": false,
          "name": "author",
          "type": "address"
        }
      ],
      "name": "PostCreate",
      "type": "event",
      "signature": "0x5676a72eda1d2cf2f30e6792139f71315fd9bc606c2036b31e702599a089d590"
    },
    {
      "anonymous": false,
      "inputs": [
        {
          "indexed": false,
          "name": "id",
          "type": "uint256"
        },
        {
          "indexed": false,
          "name": "content",
          "type": "string"
        },
        {
          "indexed": false,
          "name": "tipAmount",
          "type": "uint256"
        },
        {
          "indexed": false,
          "name": "author",
          "type": "address"
        }
      ],
      "name": "PostTipped",
      "type": "event",
      "signature": "0x20988fe475351e75813672abada1dddb7ac67cbbeb81e61e1160b8329d8cdf1c"
    },
    {
      "anonymous": false,
      "inputs": [
        {
          "indexed": false,
          "name": "id",
          "type": "uint256"
        },
        {
          "indexed": false,
          "name": "authorPost",
          "type": "address"
        },
        {
          "indexed": false,
          "name": "voter",
          "type": "address"
        }
      ],
      "name": "Vote",
      "type": "event",
      "signature": "0x02afaea33648bcd43181ececd38efc8528872eb2f1be6ceffde70163aff83969"
    },
    {
      "anonymous": false,
      "inputs": [
        {
          "indexed": false,
          "name": "member",
          "type": "address"
        },
        {
          "indexed": false,
          "name": "timestamp",
          "type": "uint256"
        }
      ],
      "name": "SignMember",
      "type": "event",
      "signature": "0xcb8a62e93fa7a3875e08c9b044a016b5f3b241eb686bd1e194c313e118adee31"
    },
    {
      "constant": true,
      "inputs": [
        {
          "name": "addr",
          "type": "address"
        },
        {
          "name": "index",
          "type": "uint256"
        }
      ],
      "name": "getVote",
      "outputs": [
        {
          "name": "",
          "type": "bool"
        }
      ],
      "payable": false,
      "stateMutability": "view",
      "type": "function",
      "signature": "0x6b0dd90f"
    },
    {
      "constant": false,
      "inputs": [
        {
          "name": "_content",
          "type": "string"
        }
      ],
      "name": "createPost",
      "outputs": [],
      "payable": false,
      "stateMutability": "nonpayable",
      "type": "function",
      "signature": "0xc7303c61"
    },
    {
      "constant": false,
      "inputs": [
        {
          "name": "_id",
          "type": "uint256"
        }
      ],
      "name": "tipPost",
      "outputs": [],
      "payable": true,
      "stateMutability": "payable",
      "type": "function",
      "signature": "0x74d3c1f8"
    },
    {
      "constant": false,
      "inputs": [
        {
          "name": "_id",
          "type": "uint256"
        }
      ],
      "name": "votePost",
      "outputs": [],
      "payable": true,
      "stateMutability": "payable",
      "type": "function",
      "signature": "0x85688d6f"
    },
    {
      "constant": false,
      "inputs": [],
      "name": "signMember",
      "outputs": [],
      "payable": true,
      "stateMutability": "payable",
      "type": "function",
      "signature": "0xc6b3ce3d"
    },
    {
      "constant": false,
      "inputs": [
        {
          "name": "author",
          "type": "address"
        }
      ],
      "name": "deleteMember",
      "outputs": [],
      "payable": false,
      "stateMutability": "nonpayable",
      "type": "function",
      "signature": "0x11ffb1d4"
    }
  ],
  "bytecode": "0x608060405260008055600060065534801561001957600080fd5b506115aa806100296000396000f3fe6080604052600436106100c5576000357c0100000000000000000000000000000000000000000000000000000000900463ffffffff16806308ae4b0c146100ca5780630b1e7f831461012f57806311ffb1d41461022b57806317906c2e1461027c57806333d516c7146102a75780633bbe79871461031a5780636b0dd90f1461034557806373217dce146103b857806374d3c1f81461043d57806385688d6f1461046b578063c6b3ce3d14610499578063c7303c61146104a3578063f2a40db81461056b575b600080fd5b3480156100d657600080fd5b50610119600480360360208110156100ed57600080fd5b81019080803573ffffffffffffffffffffffffffffffffffffffff1690602001909291905050506105e6565b6040518082815260200191505060405180910390f35b34801561013b57600080fd5b506101686004803603602081101561015257600080fd5b81019080803590602001909291905050506105fe565b60405180868152602001806020018581526020018481526020018373ffffffffffffffffffffffffffffffffffffffff1673ffffffffffffffffffffffffffffffffffffffff168152602001828103825286818151815260200191508051906020019080838360005b838110156101ec5780820151818401526020810190506101d1565b50505050905090810190601f1680156102195780820380516001836020036101000a031916815260200191505b50965050505050505060405180910390f35b34801561023757600080fd5b5061027a6004803603602081101561024e57600080fd5b81019080803573ffffffffffffffffffffffffffffffffffffffff1690602001909291905050506106ec565b005b34801561028857600080fd5b50610291610734565b6040518082815260200191505060405180910390f35b3480156102b357600080fd5b50610300600480360360408110156102ca57600080fd5b81019080803573ffffffffffffffffffffffffffffffffffffffff1690602001909291908035906020019092919050505061073a565b604051808215151515815260200191505060405180910390f35b34801561032657600080fd5b5061032f610769565b6040518082815260200191505060405180910390f35b34801561035157600080fd5b5061039e6004803603604081101561036857600080fd5b81019080803573ffffffffffffffffffffffffffffffffffffffff1690602001909291908035906020019092919050505061076f565b604051808215151515815260200191505060405180910390f35b3480156103c457600080fd5b506103fb600480360360408110156103db57600080fd5b8101908080359060200190929190803590602001909291905050506107d7565b604051808273ffffffffffffffffffffffffffffffffffffffff1673ffffffffffffffffffffffffffffffffffffffff16815260200191505060405180910390f35b6104696004803603602081101561045357600080fd5b8101908080359060200190929190505050610819565b005b6104976004803603602081101561048157600080fd5b8101908080359060200190929190505050610b63565b005b6104a1610fab565b005b3480156104af57600080fd5b50610569600480360360208110156104c657600080fd5b81019080803590602001906401000000008111156104e357600080fd5b8201836020820111156104f557600080fd5b8035906020019184600183028401116401000000008311171561051757600080fd5b91908080601f016020809104026020016040519081016040528093929190818152602001838380828437600081840152601f19601f820116905080830192505050505050509192919290505050611270565b005b34801561057757600080fd5b506105a46004803603602081101561058e57600080fd5b8101908080359060200190929190505050611460565b604051808273ffffffffffffffffffffffffffffffffffffffff1673ffffffffffffffffffffffffffffffffffffffff16815260200191505060405180910390f35b60046020528060005260406000206000915090505481565b6001602052806000526040600020600091509050806000015490806001018054600181600116156101000203166002900480601f0160208091040260200160405190810160405280929190818152602001828054600181600116156101000203166002900480156106b05780601f10610685576101008083540402835291602001916106b0565b820191906000526020600020905b81548152906001019060200180831161069357829003601f168201915b5050505050908060020154908060030154908060040160009054906101000a900473ffffffffffffffffffffffffffffffffffffffff16905085565b6000600460008373ffffffffffffffffffffffffffffffffffffffff1673ffffffffffffffffffffffffffffffffffffffff1681526020019081526020016000208190555050565b60005481565b60026020528160005260406000206020528060005260406000206000915091509054906101000a900460ff1681565b60065481565b6000600260008473ffffffffffffffffffffffffffffffffffffffff1673ffffffffffffffffffffffffffffffffffffffff168152602001908152602001600020600083815260200190815260200160002060009054906101000a900460ff16905092915050565b60036020528160005260406000206020528060005260406000206000915091509054906101000a900473ffffffffffffffffffffffffffffffffffffffff1681565b60008111801561082b57506000548111155b151561083657600080fd5b61083e611493565b6001600083815260200190815260200160002060a0604051908101604052908160008201548152602001600182018054600181600116156101000203166002900480601f0160208091040260200160405190810160405280929190818152602001828054600181600116156101000203166002900480156109005780601f106108d557610100808354040283529160200191610900565b820191906000526020600020905b8154815290600101906020018083116108e357829003601f168201915b5050505050815260200160028201548152602001600382015481526020016004820160009054906101000a900473ffffffffffffffffffffffffffffffffffffffff1673ffffffffffffffffffffffffffffffffffffffff1673ffffffffffffffffffffffffffffffffffffffff1681525050905060008160800151905060008190508073ffffffffffffffffffffffffffffffffffffffff166108fc349081150290604051600060405180830381858888f193505050501580156109c9573d6000803e3d6000fd5b50348360400151018360400181815250508260016000868152602001908152602001600020600082015181600001556020820151816001019080519060200190610a149291906114d9565b50604082015181600201556060820151816003015560808201518160040160006101000a81548173ffffffffffffffffffffffffffffffffffffffff021916908373ffffffffffffffffffffffffffffffffffffffff1602179055509050507f20988fe475351e75813672abada1dddb7ac67cbbeb81e61e1160b8329d8cdf1c600054846020015185604001518560405180858152602001806020018481526020018373ffffffffffffffffffffffffffffffffffffffff1673ffffffffffffffffffffffffffffffffffffffff168152602001828103825285818151815260200191508051906020019080838360005b83811015610b20578082015181840152602081019050610b05565b50505050905090810190601f168015610b4d5780820380516001836020036101000a031916815260200191505b509550505050505060405180910390a150505050565b600081118015610b7557506000548111155b1515610b8057600080fd5b600033905060001515600260008373ffffffffffffffffffffffffffffffffffffffff1673ffffffffffffffffffffffffffffffffffffffff168152602001908152602001600020600084815260200190815260200160002060009054906101000a900460ff161515141515610bf557600080fd5b610bfd611493565b6001600084815260200190815260200160002060a0604051908101604052908160008201548152602001600182018054600181600116156101000203166002900480601f016020809104026020016040519081016040528092919081815260200182805460018160011615610100020316600290048015610cbf5780601f10610c9457610100808354040283529160200191610cbf565b820191906000526020600020905b815481529060010190602001808311610ca257829003601f168201915b5050505050815260200160028201548152602001600382015481526020016004820160009054906101000a900473ffffffffffffffffffffffffffffffffffffffff1673ffffffffffffffffffffffffffffffffffffffff1673ffffffffffffffffffffffffffffffffffffffff16815250509050816003600085815260200190815260200160002060008360600151815260200190815260200160002060006101000a81548173ffffffffffffffffffffffffffffffffffffffff021916908373ffffffffffffffffffffffffffffffffffffffff16021790555060018160600151018160600181815250508060016000858152602001908152602001600020600082015181600001556020820151816001019080519060200190610de69291906114d9565b50604082015181600201556060820151816003015560808201518160040160006101000a81548173ffffffffffffffffffffffffffffffffffffffff021916908373ffffffffffffffffffffffffffffffffffffffff1602179055509050506001600260008473ffffffffffffffffffffffffffffffffffffffff1673ffffffffffffffffffffffffffffffffffffffff168152602001908152602001600020600085815260200190815260200160002060006101000a81548160ff0219169083151502179055506000816080015190508073ffffffffffffffffffffffffffffffffffffffff166108fc349081150290604051600060405180830381858888f19350505050158015610efd573d6000803e3d6000fd5b507f02afaea33648bcd43181ececd38efc8528872eb2f1be6ceffde70163aff839698260000151836080015185604051808481526020018373ffffffffffffffffffffffffffffffffffffffff1673ffffffffffffffffffffffffffffffffffffffff1681526020018273ffffffffffffffffffffffffffffffffffffffff1673ffffffffffffffffffffffffffffffffffffffff168152602001935050505060405180910390a150505050565b60003390506000600460008373ffffffffffffffffffffffffffffffffffffffff1673ffffffffffffffffffffffffffffffffffffffff16815260200190815260200160002054141515610ffe57600080fd5b60007331435210da75ee90be5d7f03a5aab94015fc3cc290508073ffffffffffffffffffffffffffffffffffffffff166108fc349081150290604051600060405180830381858888f1935050505015801561105d573d6000803e3d6000fd5b5042600460008473ffffffffffffffffffffffffffffffffffffffff1673ffffffffffffffffffffffffffffffffffffffff1681526020019081526020016000208190555060008090505b600654811015611199578273ffffffffffffffffffffffffffffffffffffffff166005600083815260200190815260200160002060009054906101000a900473ffffffffffffffffffffffffffffffffffffffff1673ffffffffffffffffffffffffffffffffffffffff16141561118c577fcb8a62e93fa7a3875e08c9b044a016b5f3b241eb686bd1e194c313e118adee318342604051808373ffffffffffffffffffffffffffffffffffffffff1673ffffffffffffffffffffffffffffffffffffffff1681526020018281526020019250505060405180910390a150505061126e565b80806001019150506110a8565b508160056000600654815260200190815260200160002060006101000a81548173ffffffffffffffffffffffffffffffffffffffff021916908373ffffffffffffffffffffffffffffffffffffffff1602179055506006600081548092919060010191905055507fcb8a62e93fa7a3875e08c9b044a016b5f3b241eb686bd1e194c313e118adee318242604051808373ffffffffffffffffffffffffffffffffffffffff1673ffffffffffffffffffffffffffffffffffffffff1681526020018281526020019250505060405180910390a150505b565b6000815111151561128057600080fd5b6000808154809291906001019190505550600033905060a060405190810160405280600054815260200183815260200160008152602001600081526020018273ffffffffffffffffffffffffffffffffffffffff1681525060016000805481526020019081526020016000206000820151816000015560208201518160010190805190602001906113129291906114d9565b50604082015181600201556060820151816003015560808201518160040160006101000a81548173ffffffffffffffffffffffffffffffffffffffff021916908373ffffffffffffffffffffffffffffffffffffffff1602179055509050507f5676a72eda1d2cf2f30e6792139f71315fd9bc606c2036b31e702599a089d590600054836000808560405180868152602001806020018581526020018481526020018373ffffffffffffffffffffffffffffffffffffffff1673ffffffffffffffffffffffffffffffffffffffff168152602001828103825286818151815260200191508051906020019080838360005b8381101561141e578082015181840152602081019050611403565b50505050905090810190601f16801561144b5780820380516001836020036101000a031916815260200191505b50965050505050505060405180910390a15050565b60056020528060005260406000206000915054906101000a900473ffffffffffffffffffffffffffffffffffffffff1681565b60a06040519081016040528060008152602001606081526020016000815260200160008152602001600073ffffffffffffffffffffffffffffffffffffffff1681525090565b828054600181600116156101000203166002900490600052602060002090601f016020900481019282601f1061151a57805160ff1916838001178555611548565b82800160010185558215611548579182015b8281111561154757825182559160200191906001019061152c565b5b5090506115559190611559565b5090565b61157b91905b8082111561157757600081600090555060010161155f565b5090565b9056fea165627a7a7230582065f475d63a74ac262788785c38150cdb5e161a923d3e7b0eae3d969617e2fc860029",
  "source": "pragma solidity 0.5.0;\r\n\r\ncontract SocialNetwork {\r\n    uint public postCount = 0;\r\n\r\n    mapping(uint => Post) public posts;\r\n    mapping(address => mapping(uint => bool)) public addressVotes;\r\n    mapping(uint => mapping (uint => address)) public voterOfPost;\r\n    mapping(address => uint) public members;\r\n    mapping(uint => address) public accounts;\r\n    uint public numMember = 0;\r\n    struct Post{\r\n        uint id;\r\n        string content;\r\n        uint tipAmount;\r\n        uint vote;\r\n        address payable author;\r\n    }\r\n\r\n    event PostCreate(\r\n        uint id,\r\n        string content,\r\n        uint tipAmount,\r\n        uint vote,\r\n        address payable author\r\n    );\r\n\r\n    event PostTipped(\r\n        uint id,\r\n        string content,\r\n        uint tipAmount,\r\n        address payable author\r\n    );\r\n\r\n    event Vote(\r\n        uint id,\r\n        address authorPost,\r\n        address voter\r\n    );\r\n\r\n    event SignMember(\r\n        address member,\r\n        uint timestamp\r\n    );\r\n\r\n    function getVote(address addr, uint index) public view returns (bool) {\r\n        return addressVotes[addr][index];\r\n    }\r\n\r\n    function createPost(string memory _content) public{\r\n        // require valid content\r\n        require(bytes(_content).length > 0);// if true continue excution \r\n        // Increment post\r\n        postCount++;\r\n        // create the post\r\n        address payable payable_addr = address(uint160(msg.sender));\r\n        posts[postCount] = Post(postCount, _content, 0, 0, payable_addr);\r\n        // Trigger event\r\n        emit PostCreate(postCount, _content, 0, 0, payable_addr);\r\n    }\r\n\r\n    function tipPost(uint _id) public payable {\r\n        // make sure the id is valid\r\n        require(_id > 0 && _id <= postCount);\r\n\r\n        // fetch the post\r\n        Post memory _post = posts[_id];\r\n        // fetch the author\r\n        address payable _author = _post.author;\r\n        address payable payable_addr = address(uint160(_author));\r\n        // pay the author by sending them Ether\r\n        payable_addr.transfer(msg.value); // send and transfer just Object address payable not address\r\n        // Incremet the tip amount\r\n        _post.tipAmount = _post.tipAmount + msg.value;\r\n        // update the post\r\n        posts[_id] = _post;\r\n        // trigger event\r\n        emit PostTipped(postCount, _post.content, _post.tipAmount, _author);\r\n    }\r\n\r\n    function votePost(uint _id) public payable{\r\n        require(_id > 0 && _id <= postCount);\r\n        address voter = address(uint160(msg.sender)); \r\n        require(addressVotes[voter][_id] == false);\r\n        Post memory _post = posts[_id];\r\n        \r\n        voterOfPost[_id][_post.vote] = voter;\r\n        _post.vote = _post.vote + 1;\r\n\r\n        posts[_id] = _post;\r\n        addressVotes[voter][_id] = true;\r\n        // address payable payable_addr = address(uint160(0x31435210dA75eE90bE5d7f03a5AAB94015Fc3cC2));\r\n        address payable payable_addr = address(uint160(_post.author));\r\n        payable_addr.transfer(msg.value);\r\n\r\n        emit Vote(_post.id, _post.author, voter);\r\n    }\r\n\r\n    function signMember() public payable{\r\n        \r\n        address member = address(uint160(msg.sender));\r\n        require(members[member] == 0);\r\n        address payable payable_addr = address(uint160(0x31435210dA75eE90bE5d7f03a5AAB94015Fc3cC2));\r\n        payable_addr.transfer(msg.value);\r\n        members[member] = block.timestamp;\r\n        for(uint i = 0 ; i < numMember ;i++){\r\n            if(accounts[i] == member){\r\n                emit SignMember(member, block.timestamp);\r\n                return;\r\n            }\r\n        }\r\n        accounts[numMember] = member;\r\n        numMember++;\r\n        emit SignMember(member, block.timestamp);\r\n    }\r\n\r\n    function deleteMember(address author) public {\r\n        members[author] = 0 ;\r\n    }\r\n}   ",
  "sourcePath": "D:/Code/DL2/snw2/PTDL2_Project/src/contracts/SocialNetwork.sol",
  "compiler": {
    "name": "solc",
    "version": "0.5.0+commit.1d4f565a.Emscripten.clang"
  },
  "schemaVersion": "3.0.1",
  "updatedAt": "2023-05-02T05:46:58.047Z",
  "devdoc": {
    "methods": {}
  },
  "userdoc": {
    "methods": {}
  }
}